{
  "_format": "hh-sol-artifact-1",
  "contractName": "Twitter",
  "sourceName": "contracts/Twitter.sol",
  "abi": [
    {
      "anonymous": false,
      "inputs": [
        {
          "indexed": false,
          "internalType": "uint256",
          "name": "id",
          "type": "uint256"
        },
        {
          "indexed": false,
          "internalType": "address",
          "name": "author",
          "type": "address"
        },
        {
          "indexed": false,
          "internalType": "string",
          "name": "text",
          "type": "string"
        },
        {
          "indexed": false,
          "internalType": "uint256",
          "name": "timestamp",
          "type": "uint256"
        }
      ],
      "name": "NewTweet",
      "type": "event"
    },
    {
      "inputs": [
        {
          "internalType": "string",
          "name": "_text",
          "type": "string"
        }
      ],
      "name": "createTweet",
      "outputs": [],
      "stateMutability": "payable",
      "type": "function"
    },
    {
      "inputs": [
        {
          "internalType": "uint256",
          "name": "_id",
          "type": "uint256"
        }
      ],
      "name": "deleteTweet",
      "outputs": [],
      "stateMutability": "payable",
      "type": "function"
    },
    {
      "inputs": [],
      "name": "getTweetCount",
      "outputs": [
        {
          "internalType": "uint256",
          "name": "",
          "type": "uint256"
        }
      ],
      "stateMutability": "view",
      "type": "function"
    },
    {
      "inputs": [],
      "name": "getTweets",
      "outputs": [
        {
          "components": [
            {
              "internalType": "uint256",
              "name": "id",
              "type": "uint256"
            },
            {
              "internalType": "uint256",
              "name": "timestamp",
              "type": "uint256"
            },
            {
              "internalType": "string",
              "name": "text",
              "type": "string"
            },
            {
              "internalType": "address",
              "name": "author",
              "type": "address"
            },
            {
              "internalType": "bool",
              "name": "isDeleted",
              "type": "bool"
            }
          ],
          "internalType": "struct Twitter.Tweet[]",
          "name": "",
          "type": "tuple[]"
        }
      ],
      "stateMutability": "view",
      "type": "function"
    },
    {
      "inputs": [
        {
          "internalType": "uint256",
          "name": "",
          "type": "uint256"
        }
      ],
      "name": "tweets",
      "outputs": [
        {
          "internalType": "uint256",
          "name": "id",
          "type": "uint256"
        },
        {
          "internalType": "uint256",
          "name": "timestamp",
          "type": "uint256"
        },
        {
          "internalType": "string",
          "name": "text",
          "type": "string"
        },
        {
          "internalType": "address",
          "name": "author",
          "type": "address"
        },
        {
          "internalType": "bool",
          "name": "isDeleted",
          "type": "bool"
        }
      ],
      "stateMutability": "view",
      "type": "function"
    },
    {
      "inputs": [
        {
          "internalType": "uint256",
          "name": "",
          "type": "uint256"
        }
      ],
      "name": "tweetsInserted",
      "outputs": [
        {
          "internalType": "bool",
          "name": "",
          "type": "bool"
        }
      ],
      "stateMutability": "view",
      "type": "function"
    },
    {
      "inputs": [
        {
          "internalType": "uint256",
          "name": "",
          "type": "uint256"
        }
      ],
      "name": "tweetsKeys",
      "outputs": [
        {
          "internalType": "uint256",
          "name": "",
          "type": "uint256"
        }
      ],
      "stateMutability": "view",
      "type": "function"
    },
    {
      "inputs": [
        {
          "internalType": "uint256",
          "name": "_id",
          "type": "uint256"
        },
        {
          "internalType": "string",
          "name": "_text",
          "type": "string"
        }
      ],
      "name": "updateTweet",
      "outputs": [],
      "stateMutability": "payable",
      "type": "function"
    }
  ],
  "bytecode": "0x60806040526010600055600054600a6200001a9190620001c3565b60015560006005553480156200002f57600080fd5b5062000214565b7f4e487b7100000000000000000000000000000000000000000000000000000000600052601160045260246000fd5b60008160011c9050919050565b6000808291508390505b6001851115620000c4578086048111156200009c576200009b62000036565b5b6001851615620000ac5780820291505b8081029050620000bc8562000065565b94506200007c565b94509492505050565b600082620000df5760019050620001b2565b81620000ef5760009050620001b2565b8160018114620001085760028114620001135762000149565b6001915050620001b2565b60ff84111562000128576200012762000036565b5b8360020a91508482111562000142576200014162000036565b5b50620001b2565b5060208310610133831016604e8410600b8410161715620001835782820a9050838111156200017d576200017c62000036565b5b620001b2565b62000192848484600162000072565b92509050818404811115620001ac57620001ab62000036565b5b81810290505b9392505050565b6000819050919050565b6000620001d082620001b9565b9150620001dd83620001b9565b92506200020c7fffffffffffffffffffffffffffffffffffffffffffffffffffffffffffffffff8484620000cd565b905092915050565b61122580620002246000396000f3fe60806040526004361061007b5760003560e01c80637c9cd2bc1161004e5780637c9cd2bc14610120578063a29384d51461013c578063e8d857b014610179578063fc86741f146101ba5761007b565b80635775912a14610080578063738f50d61461009c5780637870d46f146100d95780637c0aa77a14610104575b600080fd5b61009a60048036038101906100959190610a48565b6101e5565b005b3480156100a857600080fd5b506100c360048036038101906100be9190610a48565b61029d565b6040516100d09190610a84565b60405180910390f35b3480156100e557600080fd5b506100ee6102c1565b6040516100fb9190610a84565b60405180910390f35b61011e60048036038101906101199190610be5565b6102ce565b005b61013a60048036038101906101359190610c41565b610395565b005b34801561014857600080fd5b50610163600480360381019061015e9190610a48565b61059c565b6040516101709190610ca5565b60405180910390f35b34801561018557600080fd5b506101a0600480360381019061019b9190610a48565b6105bc565b6040516101b1959493929190610d89565b60405180910390f35b3480156101c657600080fd5b506101cf6106a7565b6040516101dc9190610f92565b60405180910390f35b3373ffffffffffffffffffffffffffffffffffffffff166002600083815260200190815260200160002060030160009054906101000a900473ffffffffffffffffffffffffffffffffffffffff1673ffffffffffffffffffffffffffffffffffffffff161461025357600080fd5b60016002600083815260200190815260200160002060030160146101000a81548160ff0219169083151502179055506005600081548092919061029590610fe3565b919050555050565b600481815481106102ad57600080fd5b906000526020600020016000915090505481565b6000600480549050905090565b3373ffffffffffffffffffffffffffffffffffffffff166002600084815260200190815260200160002060030160009054906101000a900473ffffffffffffffffffffffffffffffffffffffff1673ffffffffffffffffffffffffffffffffffffffff161461033c57600080fd5b60405180602001604052806000815250805190602001208180519060200120141561036657600080fd5b80600260008481526020019081526020016000206002019080519060200190610390929190610914565b505050565b6040518060200160405280600081525080519060200120818051906020012014156103bf57600080fd5b60006103ca826108cf565b905060006040518060a001604052808381526020014281526020018481526020013373ffffffffffffffffffffffffffffffffffffffff16815260200160001515815250905080600260008360000151815260200190815260200160002060008201518160000155602082015181600101556040820151816002019080519060200190610458929190610914565b5060608201518160030160006101000a81548173ffffffffffffffffffffffffffffffffffffffff021916908373ffffffffffffffffffffffffffffffffffffffff16021790555060808201518160030160146101000a81548160ff021916908315150217905550905050600360008260000151815260200190815260200160002060009054906101000a900460ff1661054a576001600360008360000151815260200190815260200160002060006101000a81548160ff0219169083151502179055506004816000015190806001815401808255809150506001900390600052602060002001600090919091909150555b7f0b1c7d16487c44185fadbe08b54bc1ff08651d7d0244a764d90f75912af906c8816000015182606001518360400151846020015160405161058f949392919061102c565b60405180910390a1505050565b60036020528060005260406000206000915054906101000a900460ff1681565b60026020528060005260406000206000915090508060000154908060010154908060020180546105eb906110a7565b80601f0160208091040260200160405190810160405280929190818152602001828054610617906110a7565b80156106645780601f1061063957610100808354040283529160200191610664565b820191906000526020600020905b81548152906001019060200180831161064757829003601f168201915b5050505050908060030160009054906101000a900473ffffffffffffffffffffffffffffffffffffffff16908060030160149054906101000a900460ff16905085565b606060006005546004805490506106be91906110d9565b67ffffffffffffffff8111156106d7576106d6610aba565b5b60405190808252806020026020018201604052801561071057816020015b6106fd61099a565b8152602001906001900390816106f55790505b5090506000805b6004805490508110156108c6576000600260006004848154811061073e5761073d61110d565b5b906000526020600020015481526020019081526020016000206040518060a00160405290816000820154815260200160018201548152602001600282018054610786906110a7565b80601f01602080910402602001604051908101604052809291908181526020018280546107b2906110a7565b80156107ff5780601f106107d4576101008083540402835291602001916107ff565b820191906000526020600020905b8154815290600101906020018083116107e257829003601f168201915b505050505081526020016003820160009054906101000a900473ffffffffffffffffffffffffffffffffffffffff1673ffffffffffffffffffffffffffffffffffffffff1673ffffffffffffffffffffffffffffffffffffffff1681526020016003820160149054906101000a900460ff161515151581525050905080608001516108b257808484815181106108985761089761110d565b5b602002602001018190525082806108ae90610fe3565b9350505b5080806108be90610fe3565b915050610717565b50819250505090565b600080826040516020016108e39190611178565b6040516020818303038152906040528051906020012060001c90506001548161090c91906111be565b915050919050565b828054610920906110a7565b90600052602060002090601f0160209004810192826109425760008555610989565b82601f1061095b57805160ff1916838001178555610989565b82800160010185558215610989579182015b8281111561098857825182559160200191906001019061096d565b5b50905061099691906109e1565b5090565b6040518060a00160405280600081526020016000815260200160608152602001600073ffffffffffffffffffffffffffffffffffffffff1681526020016000151581525090565b5b808211156109fa5760008160009055506001016109e2565b5090565b6000604051905090565b600080fd5b600080fd5b6000819050919050565b610a2581610a12565b8114610a3057600080fd5b50565b600081359050610a4281610a1c565b92915050565b600060208284031215610a5e57610a5d610a08565b5b6000610a6c84828501610a33565b91505092915050565b610a7e81610a12565b82525050565b6000602082019050610a996000830184610a75565b92915050565b600080fd5b600080fd5b6000601f19601f8301169050919050565b7f4e487b7100000000000000000000000000000000000000000000000000000000600052604160045260246000fd5b610af282610aa9565b810181811067ffffffffffffffff82111715610b1157610b10610aba565b5b80604052505050565b6000610b246109fe565b9050610b308282610ae9565b919050565b600067ffffffffffffffff821115610b5057610b4f610aba565b5b610b5982610aa9565b9050602081019050919050565b82818337600083830152505050565b6000610b88610b8384610b35565b610b1a565b905082815260208101848484011115610ba457610ba3610aa4565b5b610baf848285610b66565b509392505050565b600082601f830112610bcc57610bcb610a9f565b5b8135610bdc848260208601610b75565b91505092915050565b60008060408385031215610bfc57610bfb610a08565b5b6000610c0a85828601610a33565b925050602083013567ffffffffffffffff811115610c2b57610c2a610a0d565b5b610c3785828601610bb7565b9150509250929050565b600060208284031215610c5757610c56610a08565b5b600082013567ffffffffffffffff811115610c7557610c74610a0d565b5b610c8184828501610bb7565b91505092915050565b60008115159050919050565b610c9f81610c8a565b82525050565b6000602082019050610cba6000830184610c96565b92915050565b600081519050919050565b600082825260208201905092915050565b60005b83811015610cfa578082015181840152602081019050610cdf565b83811115610d09576000848401525b50505050565b6000610d1a82610cc0565b610d248185610ccb565b9350610d34818560208601610cdc565b610d3d81610aa9565b840191505092915050565b600073ffffffffffffffffffffffffffffffffffffffff82169050919050565b6000610d7382610d48565b9050919050565b610d8381610d68565b82525050565b600060a082019050610d9e6000830188610a75565b610dab6020830187610a75565b8181036040830152610dbd8186610d0f565b9050610dcc6060830185610d7a565b610dd96080830184610c96565b9695505050505050565b600081519050919050565b600082825260208201905092915050565b6000819050602082019050919050565b610e1881610a12565b82525050565b600082825260208201905092915050565b6000610e3a82610cc0565b610e448185610e1e565b9350610e54818560208601610cdc565b610e5d81610aa9565b840191505092915050565b610e7181610d68565b82525050565b610e8081610c8a565b82525050565b600060a083016000830151610e9e6000860182610e0f565b506020830151610eb16020860182610e0f565b5060408301518482036040860152610ec98282610e2f565b9150506060830151610ede6060860182610e68565b506080830151610ef16080860182610e77565b508091505092915050565b6000610f088383610e86565b905092915050565b6000602082019050919050565b6000610f2882610de3565b610f328185610dee565b935083602082028501610f4485610dff565b8060005b85811015610f805784840389528151610f618582610efc565b9450610f6c83610f10565b925060208a01995050600181019050610f48565b50829750879550505050505092915050565b60006020820190508181036000830152610fac8184610f1d565b905092915050565b7f4e487b7100000000000000000000000000000000000000000000000000000000600052601160045260246000fd5b6000610fee82610a12565b91507fffffffffffffffffffffffffffffffffffffffffffffffffffffffffffffffff82141561102157611020610fb4565b5b600182019050919050565b60006080820190506110416000830187610a75565b61104e6020830186610d7a565b81810360408301526110608185610d0f565b905061106f6060830184610a75565b95945050505050565b7f4e487b7100000000000000000000000000000000000000000000000000000000600052602260045260246000fd5b600060028204905060018216806110bf57607f821691505b602082108114156110d3576110d2611078565b5b50919050565b60006110e482610a12565b91506110ef83610a12565b92508282101561110257611101610fb4565b5b828203905092915050565b7f4e487b7100000000000000000000000000000000000000000000000000000000600052603260045260246000fd5b600081905092915050565b600061115282610cc0565b61115c818561113c565b935061116c818560208601610cdc565b80840191505092915050565b60006111848284611147565b915081905092915050565b7f4e487b7100000000000000000000000000000000000000000000000000000000600052601260045260246000fd5b60006111c982610a12565b91506111d483610a12565b9250826111e4576111e361118f565b5b82820690509291505056fea2646970667358221220b9f6a14a667fb9230a959ff204e0c312174e3977103f8382ad86a4e42dd0d11e64736f6c63430008090033",
  "linkReferences": {},
  "deployedLinkReferences": {}
}