{
  "_format": "hh-sol-artifact-1",
  "contractName": "Twitter",
  "sourceName": "contracts/Twitter.sol",
  "abi": [
    {
      "anonymous": false,
      "inputs": [
        {
          "indexed": false,
          "internalType": "uint256",
          "name": "id",
          "type": "uint256"
        },
        {
          "indexed": false,
          "internalType": "address",
          "name": "author",
          "type": "address"
        },
        {
          "indexed": false,
          "internalType": "string",
          "name": "text",
          "type": "string"
        },
        {
          "indexed": false,
          "internalType": "uint256",
          "name": "timestamp",
          "type": "uint256"
        }
      ],
      "name": "NewTweet",
      "type": "event"
    },
    {
      "anonymous": false,
      "inputs": [
        {
          "indexed": false,
          "internalType": "uint256",
          "name": "id",
          "type": "uint256"
        },
        {
          "indexed": false,
          "internalType": "address",
          "name": "author",
          "type": "address"
        },
        {
          "indexed": false,
          "internalType": "bool",
          "name": "hasLiked",
          "type": "bool"
        },
        {
          "indexed": false,
          "internalType": "uint256",
          "name": "timestamp",
          "type": "uint256"
        }
      ],
      "name": "NewTweetLike",
      "type": "event"
    },
    {
      "inputs": [
        {
          "internalType": "string",
          "name": "_text",
          "type": "string"
        }
      ],
      "name": "createTweet",
      "outputs": [],
      "stateMutability": "payable",
      "type": "function"
    },
    {
      "inputs": [
        {
          "internalType": "uint256",
          "name": "_id",
          "type": "uint256"
        }
      ],
      "name": "deleteTweet",
      "outputs": [],
      "stateMutability": "payable",
      "type": "function"
    },
    {
      "inputs": [],
      "name": "getTweetCount",
      "outputs": [
        {
          "internalType": "uint256",
          "name": "",
          "type": "uint256"
        }
      ],
      "stateMutability": "view",
      "type": "function"
    },
    {
      "inputs": [],
      "name": "getTweets",
      "outputs": [
        {
          "components": [
            {
              "internalType": "uint256",
              "name": "id",
              "type": "uint256"
            },
            {
              "internalType": "uint256",
              "name": "timestamp",
              "type": "uint256"
            },
            {
              "internalType": "string",
              "name": "text",
              "type": "string"
            },
            {
              "internalType": "address",
              "name": "author",
              "type": "address"
            },
            {
              "internalType": "uint256",
              "name": "likesCount",
              "type": "uint256"
            },
            {
              "internalType": "bool",
              "name": "isDeleted",
              "type": "bool"
            }
          ],
          "internalType": "struct Twitter.Tweet[]",
          "name": "",
          "type": "tuple[]"
        }
      ],
      "stateMutability": "view",
      "type": "function"
    },
    {
      "inputs": [],
      "name": "getTweetsWithLikes",
      "outputs": [
        {
          "components": [
            {
              "components": [
                {
                  "internalType": "uint256",
                  "name": "id",
                  "type": "uint256"
                },
                {
                  "internalType": "uint256",
                  "name": "timestamp",
                  "type": "uint256"
                },
                {
                  "internalType": "string",
                  "name": "text",
                  "type": "string"
                },
                {
                  "internalType": "address",
                  "name": "author",
                  "type": "address"
                },
                {
                  "internalType": "uint256",
                  "name": "likesCount",
                  "type": "uint256"
                },
                {
                  "internalType": "bool",
                  "name": "isDeleted",
                  "type": "bool"
                }
              ],
              "internalType": "struct Twitter.Tweet",
              "name": "tweet",
              "type": "tuple"
            },
            {
              "internalType": "address[]",
              "name": "likedBy",
              "type": "address[]"
            }
          ],
          "internalType": "struct Twitter.TweetWithLikes[]",
          "name": "",
          "type": "tuple[]"
        }
      ],
      "stateMutability": "view",
      "type": "function"
    },
    {
      "inputs": [
        {
          "internalType": "uint256",
          "name": "_id",
          "type": "uint256"
        }
      ],
      "name": "toggleLikeTweet",
      "outputs": [],
      "stateMutability": "payable",
      "type": "function"
    },
    {
      "inputs": [
        {
          "internalType": "uint256",
          "name": "_id",
          "type": "uint256"
        },
        {
          "internalType": "string",
          "name": "_text",
          "type": "string"
        }
      ],
      "name": "updateTweet",
      "outputs": [],
      "stateMutability": "payable",
      "type": "function"
    }
  ],
  "bytecode": "0x60806040526010600055600054600a6200001a9190620001c3565b60015560006005553480156200002f57600080fd5b5062000214565b7f4e487b7100000000000000000000000000000000000000000000000000000000600052601160045260246000fd5b60008160011c9050919050565b6000808291508390505b6001851115620000c4578086048111156200009c576200009b62000036565b5b6001851615620000ac5780820291505b8081029050620000bc8562000065565b94506200007c565b94509492505050565b600082620000df5760019050620001b2565b81620000ef5760009050620001b2565b8160018114620001085760028114620001135762000149565b6001915050620001b2565b60ff84111562000128576200012762000036565b5b8360020a91508482111562000142576200014162000036565b5b50620001b2565b5060208310610133831016604e8410600b8410161715620001835782820a9050838111156200017d576200017c62000036565b5b620001b2565b62000192848484600162000072565b92509050818404811115620001ac57620001ab62000036565b5b81810290505b9392505050565b6000819050919050565b6000620001d082620001b9565b9150620001dd83620001b9565b92506200020c7fffffffffffffffffffffffffffffffffffffffffffffffffffffffffffffffff8484620000cd565b905092915050565b61199f80620002246000396000f3fe6080604052600436106100705760003560e01c80637c0aa77a1161004e5780637c0aa77a146100e75780637c9cd2bc146101035780637ef8746a1461011f578063fc86741f1461013b57610070565b806317414369146100755780635775912a146100a05780637870d46f146100bc575b600080fd5b34801561008157600080fd5b5061008a610166565b6040516100979190611208565b60405180910390f35b6100ba60048036038101906100b5919061126a565b610447565b005b3480156100c857600080fd5b506100d1610535565b6040516100de91906112a6565b60405180910390f35b61010160048036038101906100fc91906113f6565b61054f565b005b61011d60048036038101906101189190611452565b61064c565b005b6101396004803603810190610134919061126a565b610864565b005b34801561014757600080fd5b50610150610b34565b60405161015d919061155d565b60405180910390f35b6060600060055460048054905061017d91906115ae565b67ffffffffffffffff811115610196576101956112cb565b5b6040519080825280602002602001820160405280156101cf57816020015b6101bc610dab565b8152602001906001900390816101b45790505b5090506000805b60048054905081101561043e57600060026000600484815481106101fd576101fc6115e2565b5b906000526020600020015481526020019081526020016000206040518060c0016040529081600082015481526020016001820154815260200160028201805461024590611640565b80601f016020809104026020016040519081016040528092919081815260200182805461027190611640565b80156102be5780601f10610293576101008083540402835291602001916102be565b820191906000526020600020905b8154815290600101906020018083116102a157829003601f168201915b505050505081526020016003820160009054906101000a900473ffffffffffffffffffffffffffffffffffffffff1673ffffffffffffffffffffffffffffffffffffffff1673ffffffffffffffffffffffffffffffffffffffff168152602001600482015481526020016005820160009054906101000a900460ff16151515158152505090508060a0015161042a57604051806040016040528082815260200160066000846000015181526020019081526020016000208054806020026020016040519081016040528092919081815260200182805480156103f557602002820191906000526020600020905b8160009054906101000a900473ffffffffffffffffffffffffffffffffffffffff1673ffffffffffffffffffffffffffffffffffffffff16815260200190600101908083116103ab575b50505050508152508484815181106104105761040f6115e2565b5b6020026020010181905250828061042690611672565b9350505b50808061043690611672565b9150506101d6565b50819250505090565b3373ffffffffffffffffffffffffffffffffffffffff166002600083815260200190815260200160002060030160009054906101000a900473ffffffffffffffffffffffffffffffffffffffff1673ffffffffffffffffffffffffffffffffffffffff16146104eb576040517f08c379a00000000000000000000000000000000000000000000000000000000081526004016104e290611718565b60405180910390fd5b60016002600083815260200190815260200160002060050160006101000a81548160ff0219169083151502179055506005600081548092919061052d90611672565b919050555050565b600060055460048054905061054a91906115ae565b905090565b3373ffffffffffffffffffffffffffffffffffffffff166002600084815260200190815260200160002060030160009054906101000a900473ffffffffffffffffffffffffffffffffffffffff1673ffffffffffffffffffffffffffffffffffffffff16146105f3576040517f08c379a00000000000000000000000000000000000000000000000000000000081526004016105ea90611784565b60405180910390fd5b60405180602001604052806000815250805190602001208180519060200120141561061d57600080fd5b80600260008481526020019081526020016000206002019080519060200190610647929190610dcb565b505050565b60405180602001604052806000815250805190602001208180519060200120141561067657600080fd5b600061068182610d66565b905060006040518060c001604052808381526020014281526020018481526020013373ffffffffffffffffffffffffffffffffffffffff1681526020016000815260200160001515815250905080600260008360000151815260200190815260200160002060008201518160000155602082015181600101556040820151816002019080519060200190610716929190610dcb565b5060608201518160030160006101000a81548173ffffffffffffffffffffffffffffffffffffffff021916908373ffffffffffffffffffffffffffffffffffffffff1602179055506080820151816004015560a08201518160050160006101000a81548160ff021916908315150217905550905050600360008260000151815260200190815260200160002060009054906101000a900460ff16610812576001600360008360000151815260200190815260200160002060006101000a81548160ff0219169083151502179055506004816000015190806001815401808255809150506001900390600052602060002001600090919091909150555b7f0b1c7d16487c44185fadbe08b54bc1ff08651d7d0244a764d90f75912af906c8816000015182606001518360400151846020015160405161085794939291906117ec565b60405180910390a1505050565b6000600660008381526020019081526020016000208054806020026020016040519081016040528092919081815260200182805480156108f957602002820191906000526020600020905b8160009054906101000a900473ffffffffffffffffffffffffffffffffffffffff1673ffffffffffffffffffffffffffffffffffffffff16815260200190600101908083116108af575b5050505050905060005b8151811015610a50573373ffffffffffffffffffffffffffffffffffffffff16828281518110610936576109356115e2565b5b602002602001015173ffffffffffffffffffffffffffffffffffffffff161415610a3d5760066000848152602001908152602001600020818154811061097f5761097e6115e2565b5b9060005260206000200160006101000a81549073ffffffffffffffffffffffffffffffffffffffff02191690556000600260008581526020019081526020016000206004015411156109f8576002600084815260200190815260200160002060040160008154809291906109f290611838565b91905055505b7ffac4e137c75e1540855fb973625008a49b1e6b1300937436abc91c46a11b2a778333600042604051610a2e9493929190611871565b60405180910390a15050610b31565b8080610a4890611672565b915050610903565b5060066000838152602001908152602001600020339080600181540180825580915050600190039060005260206000200160009091909190916101000a81548173ffffffffffffffffffffffffffffffffffffffff021916908373ffffffffffffffffffffffffffffffffffffffff160217905550600260008381526020019081526020016000206004016000815480929190610aec90611672565b91905055507ffac4e137c75e1540855fb973625008a49b1e6b1300937436abc91c46a11b2a778233600142604051610b279493929190611871565b60405180910390a1505b50565b60606000600554600480549050610b4b91906115ae565b67ffffffffffffffff811115610b6457610b636112cb565b5b604051908082528060200260200182016040528015610b9d57816020015b610b8a610e51565b815260200190600190039081610b825790505b5090506000805b600480549050811015610d5d5760006002600060048481548110610bcb57610bca6115e2565b5b906000526020600020015481526020019081526020016000206040518060c00160405290816000820154815260200160018201548152602001600282018054610c1390611640565b80601f0160208091040260200160405190810160405280929190818152602001828054610c3f90611640565b8015610c8c5780601f10610c6157610100808354040283529160200191610c8c565b820191906000526020600020905b815481529060010190602001808311610c6f57829003601f168201915b505050505081526020016003820160009054906101000a900473ffffffffffffffffffffffffffffffffffffffff1673ffffffffffffffffffffffffffffffffffffffff1673ffffffffffffffffffffffffffffffffffffffff168152602001600482015481526020016005820160009054906101000a900460ff16151515158152505090508060a00151610d495780848481518110610d2f57610d2e6115e2565b5b60200260200101819052508280610d4590611672565b9350505b508080610d5590611672565b915050610ba4565b50819250505090565b60008082604051602001610d7a91906118f2565b6040516020818303038152906040528051906020012060001c905060015481610da39190611938565b915050919050565b6040518060400160405280610dbe610e51565b8152602001606081525090565b828054610dd790611640565b90600052602060002090601f016020900481019282610df95760008555610e40565b82601f10610e1257805160ff1916838001178555610e40565b82800160010185558215610e40579182015b82811115610e3f578251825591602001919060010190610e24565b5b509050610e4d9190610e9f565b5090565b6040518060c00160405280600081526020016000815260200160608152602001600073ffffffffffffffffffffffffffffffffffffffff168152602001600081526020016000151581525090565b5b80821115610eb8576000816000905550600101610ea0565b5090565b600081519050919050565b600082825260208201905092915050565b6000819050602082019050919050565b6000819050919050565b610efb81610ee8565b82525050565b600081519050919050565b600082825260208201905092915050565b60005b83811015610f3b578082015181840152602081019050610f20565b83811115610f4a576000848401525b50505050565b6000601f19601f8301169050919050565b6000610f6c82610f01565b610f768185610f0c565b9350610f86818560208601610f1d565b610f8f81610f50565b840191505092915050565b600073ffffffffffffffffffffffffffffffffffffffff82169050919050565b6000610fc582610f9a565b9050919050565b610fd581610fba565b82525050565b60008115159050919050565b610ff081610fdb565b82525050565b600060c08301600083015161100e6000860182610ef2565b5060208301516110216020860182610ef2565b50604083015184820360408601526110398282610f61565b915050606083015161104e6060860182610fcc565b5060808301516110616080860182610ef2565b5060a083015161107460a0860182610fe7565b508091505092915050565b600081519050919050565b600082825260208201905092915050565b6000819050602082019050919050565b60006110b78383610fcc565b60208301905092915050565b6000602082019050919050565b60006110db8261107f565b6110e5818561108a565b93506110f08361109b565b8060005b8381101561112157815161110888826110ab565b9750611113836110c3565b9250506001810190506110f4565b5085935050505092915050565b6000604083016000830151848203600086015261114b8282610ff6565b9150506020830151848203602086015261116582826110d0565b9150508091505092915050565b600061117e838361112e565b905092915050565b6000602082019050919050565b600061119e82610ebc565b6111a88185610ec7565b9350836020820285016111ba85610ed8565b8060005b858110156111f657848403895281516111d78582611172565b94506111e283611186565b925060208a019950506001810190506111be565b50829750879550505050505092915050565b600060208201905081810360008301526112228184611193565b905092915050565b6000604051905090565b600080fd5b600080fd5b61124781610ee8565b811461125257600080fd5b50565b6000813590506112648161123e565b92915050565b6000602082840312156112805761127f611234565b5b600061128e84828501611255565b91505092915050565b6112a081610ee8565b82525050565b60006020820190506112bb6000830184611297565b92915050565b600080fd5b600080fd5b7f4e487b7100000000000000000000000000000000000000000000000000000000600052604160045260246000fd5b61130382610f50565b810181811067ffffffffffffffff82111715611322576113216112cb565b5b80604052505050565b600061133561122a565b905061134182826112fa565b919050565b600067ffffffffffffffff821115611361576113606112cb565b5b61136a82610f50565b9050602081019050919050565b82818337600083830152505050565b600061139961139484611346565b61132b565b9050828152602081018484840111156113b5576113b46112c6565b5b6113c0848285611377565b509392505050565b600082601f8301126113dd576113dc6112c1565b5b81356113ed848260208601611386565b91505092915050565b6000806040838503121561140d5761140c611234565b5b600061141b85828601611255565b925050602083013567ffffffffffffffff81111561143c5761143b611239565b5b611448858286016113c8565b9150509250929050565b60006020828403121561146857611467611234565b5b600082013567ffffffffffffffff81111561148657611485611239565b5b611492848285016113c8565b91505092915050565b600081519050919050565b600082825260208201905092915050565b6000819050602082019050919050565b60006114d38383610ff6565b905092915050565b6000602082019050919050565b60006114f38261149b565b6114fd81856114a6565b93508360208202850161150f856114b7565b8060005b8581101561154b578484038952815161152c85826114c7565b9450611537836114db565b925060208a01995050600181019050611513565b50829750879550505050505092915050565b6000602082019050818103600083015261157781846114e8565b905092915050565b7f4e487b7100000000000000000000000000000000000000000000000000000000600052601160045260246000fd5b60006115b982610ee8565b91506115c483610ee8565b9250828210156115d7576115d661157f565b5b828203905092915050565b7f4e487b7100000000000000000000000000000000000000000000000000000000600052603260045260246000fd5b7f4e487b7100000000000000000000000000000000000000000000000000000000600052602260045260246000fd5b6000600282049050600182168061165857607f821691505b6020821081141561166c5761166b611611565b5b50919050565b600061167d82610ee8565b91507fffffffffffffffffffffffffffffffffffffffffffffffffffffffffffffffff8214156116b0576116af61157f565b5b600182019050919050565b600082825260208201905092915050565b7f4f6e6c7920617574686f722063616e2064656c65746520747765657400000000600082015250565b6000611702601c836116bb565b915061170d826116cc565b602082019050919050565b60006020820190508181036000830152611731816116f5565b9050919050565b7f4f6e6c7920617574686f722063616e2075706461746520747765657400000000600082015250565b600061176e601c836116bb565b915061177982611738565b602082019050919050565b6000602082019050818103600083015261179d81611761565b9050919050565b6117ad81610fba565b82525050565b60006117be82610f01565b6117c881856116bb565b93506117d8818560208601610f1d565b6117e181610f50565b840191505092915050565b60006080820190506118016000830187611297565b61180e60208301866117a4565b818103604083015261182081856117b3565b905061182f6060830184611297565b95945050505050565b600061184382610ee8565b915060008214156118575761185661157f565b5b600182039050919050565b61186b81610fdb565b82525050565b60006080820190506118866000830187611297565b61189360208301866117a4565b6118a06040830185611862565b6118ad6060830184611297565b95945050505050565b600081905092915050565b60006118cc82610f01565b6118d681856118b6565b93506118e6818560208601610f1d565b80840191505092915050565b60006118fe82846118c1565b915081905092915050565b7f4e487b7100000000000000000000000000000000000000000000000000000000600052601260045260246000fd5b600061194382610ee8565b915061194e83610ee8565b92508261195e5761195d611909565b5b82820690509291505056fea2646970667358221220f97cefeda439b7fdb2c340a415971fc0c99aa595669a244e3a90d3a188e7472664736f6c63430008090033",
  "linkReferences": {},
  "deployedLinkReferences": {}
}