{
  "_format": "hh-sol-artifact-1",
  "contractName": "EthereumTwitter",
  "sourceName": "contracts/Twitter.sol",
  "abi": [
    {
      "inputs": [],
      "stateMutability": "payable",
      "type": "constructor"
    },
    {
      "anonymous": false,
      "inputs": [
        {
          "indexed": false,
          "internalType": "address",
          "name": "author",
          "type": "address"
        },
        {
          "indexed": false,
          "internalType": "uint256",
          "name": "id",
          "type": "uint256"
        },
        {
          "indexed": false,
          "internalType": "string",
          "name": "comment",
          "type": "string"
        },
        {
          "indexed": false,
          "internalType": "uint256",
          "name": "timestamp",
          "type": "uint256"
        }
      ],
      "name": "NewComment",
      "type": "event"
    },
    {
      "anonymous": false,
      "inputs": [
        {
          "indexed": false,
          "internalType": "address",
          "name": "author",
          "type": "address"
        },
        {
          "indexed": false,
          "internalType": "uint256",
          "name": "id",
          "type": "uint256"
        },
        {
          "indexed": false,
          "internalType": "string",
          "name": "tweet",
          "type": "string"
        },
        {
          "indexed": false,
          "internalType": "uint256",
          "name": "timestamp",
          "type": "uint256"
        }
      ],
      "name": "NewTweet",
      "type": "event"
    },
    {
      "inputs": [
        {
          "internalType": "string",
          "name": "_comment",
          "type": "string"
        },
        {
          "internalType": "uint256",
          "name": "_id",
          "type": "uint256"
        }
      ],
      "name": "addComment",
      "outputs": [],
      "stateMutability": "payable",
      "type": "function"
    },
    {
      "inputs": [
        {
          "internalType": "string",
          "name": "_tweet",
          "type": "string"
        }
      ],
      "name": "createTweet",
      "outputs": [],
      "stateMutability": "payable",
      "type": "function"
    },
    {
      "inputs": [
        {
          "internalType": "uint256",
          "name": "_id",
          "type": "uint256"
        }
      ],
      "name": "getLikedByTweet",
      "outputs": [
        {
          "internalType": "bool",
          "name": "",
          "type": "bool"
        }
      ],
      "stateMutability": "view",
      "type": "function"
    },
    {
      "inputs": [
        {
          "internalType": "uint256",
          "name": "_id",
          "type": "uint256"
        }
      ],
      "name": "getTweetComments",
      "outputs": [
        {
          "components": [
            {
              "internalType": "uint256",
              "name": "id",
              "type": "uint256"
            },
            {
              "internalType": "string",
              "name": "comment",
              "type": "string"
            },
            {
              "internalType": "address",
              "name": "author",
              "type": "address"
            },
            {
              "internalType": "uint256",
              "name": "timestamp",
              "type": "uint256"
            }
          ],
          "internalType": "struct EthereumTwitter.Comment[]",
          "name": "",
          "type": "tuple[]"
        }
      ],
      "stateMutability": "view",
      "type": "function"
    },
    {
      "inputs": [],
      "name": "getTweetLength",
      "outputs": [
        {
          "internalType": "uint256",
          "name": "",
          "type": "uint256"
        }
      ],
      "stateMutability": "view",
      "type": "function"
    },
    {
      "inputs": [
        {
          "internalType": "address",
          "name": "_user",
          "type": "address"
        }
      ],
      "name": "getUserTweets",
      "outputs": [
        {
          "internalType": "uint256[]",
          "name": "",
          "type": "uint256[]"
        }
      ],
      "stateMutability": "view",
      "type": "function"
    },
    {
      "inputs": [
        {
          "internalType": "uint256",
          "name": "_id",
          "type": "uint256"
        }
      ],
      "name": "likeTweet",
      "outputs": [],
      "stateMutability": "nonpayable",
      "type": "function"
    },
    {
      "inputs": [],
      "name": "nextTweetId",
      "outputs": [
        {
          "internalType": "uint256",
          "name": "",
          "type": "uint256"
        }
      ],
      "stateMutability": "view",
      "type": "function"
    },
    {
      "inputs": [
        {
          "internalType": "uint256",
          "name": "",
          "type": "uint256"
        }
      ],
      "name": "tweets",
      "outputs": [
        {
          "internalType": "uint256",
          "name": "id",
          "type": "uint256"
        },
        {
          "internalType": "string",
          "name": "tweet",
          "type": "string"
        },
        {
          "internalType": "address",
          "name": "author",
          "type": "address"
        },
        {
          "internalType": "uint256",
          "name": "timestamp",
          "type": "uint256"
        },
        {
          "internalType": "uint256",
          "name": "likes",
          "type": "uint256"
        }
      ],
      "stateMutability": "view",
      "type": "function"
    },
    {
      "inputs": [
        {
          "internalType": "uint256",
          "name": "_id",
          "type": "uint256"
        }
      ],
      "name": "unlikeTweet",
      "outputs": [],
      "stateMutability": "nonpayable",
      "type": "function"
    }
  ],
  "bytecode": "0x60806040526000600155611444806100186000396000f3fe6080604052600436106100915760003560e01c80638076e02b116100595780638076e02b1461017e5780638d12293f146101a957806396a3d8d7146101e6578063a2afce8814610202578063e8d857b01461022d57610091565b80631d86e904146100965780632f5899d7146100bf5780635ffc6ceb146100fc5780637b72e2d9146101255780637c9cd2bc14610162575b600080fd5b3480156100a257600080fd5b506100bd60048036038101906100b89190610dab565b61026e565b005b3480156100cb57600080fd5b506100e660048036038101906100e19190610ced565b6103de565b6040516100f39190611061565b60405180910390f35b34801561010857600080fd5b50610123600480360381019061011e9190610dab565b610475565b005b34801561013157600080fd5b5061014c60048036038101906101479190610dab565b6105e5565b6040516101599190611083565b60405180910390f35b61017c60048036038101906101779190610d16565b610683565b005b34801561018a57600080fd5b506101936107e3565b6040516101a0919061109e565b60405180910390f35b3480156101b557600080fd5b506101d060048036038101906101cb9190610dab565b6107e9565b6040516101dd919061103f565b60405180910390f35b61020060048036038101906101fb9190610d57565b61098f565b005b34801561020e57600080fd5b50610217610abe565b604051610224919061109e565b60405180910390f35b34801561023957600080fd5b50610254600480360381019061024f9190610dab565b610aca565b6040516102659594939291906110b9565b60405180910390f35b8060008082815481106102aa577f4e487b7100000000000000000000000000000000000000000000000000000000600052603260045260246000fd5b90600052602060002090600702019050600115158160050160003373ffffffffffffffffffffffffffffffffffffffff1673ffffffffffffffffffffffffffffffffffffffff16815260200190815260200160002060009054906101000a900460ff1615151461031957600080fd5b6000808481548110610354577f4e487b7100000000000000000000000000000000000000000000000000000000600052603260045260246000fd5b9060005260206000209060070201905060008160050160003373ffffffffffffffffffffffffffffffffffffffff1673ffffffffffffffffffffffffffffffffffffffff16815260200190815260200160002060006101000a81548160ff0219169083151502179055508060040160008154809291906103d39061129d565b919050555050505050565b6060600260008373ffffffffffffffffffffffffffffffffffffffff1673ffffffffffffffffffffffffffffffffffffffff16815260200190815260200160002080548060200260200160405190810160405280929190818152602001828054801561046957602002820191906000526020600020905b815481526020019060010190808311610455575b50505050509050919050565b8060008082815481106104b1577f4e487b7100000000000000000000000000000000000000000000000000000000600052603260045260246000fd5b90600052602060002090600702019050600015158160050160003373ffffffffffffffffffffffffffffffffffffffff1673ffffffffffffffffffffffffffffffffffffffff16815260200190815260200160002060009054906101000a900460ff1615151461052057600080fd5b600080848154811061055b577f4e487b7100000000000000000000000000000000000000000000000000000000600052603260045260246000fd5b9060005260206000209060070201905060018160050160003373ffffffffffffffffffffffffffffffffffffffff1673ffffffffffffffffffffffffffffffffffffffff16815260200190815260200160002060006101000a81548160ff0219169083151502179055508060040160008154809291906105da906112f9565b919050555050505050565b6000808281548110610620577f4e487b7100000000000000000000000000000000000000000000000000000000600052603260045260246000fd5b906000526020600020906007020160050160003373ffffffffffffffffffffffffffffffffffffffff1673ffffffffffffffffffffffffffffffffffffffff16815260200190815260200160002060009054906101000a900460ff169050919050565b60008060018160018154018082558091505003906000526020600020906007020190506001548160000181905550818160010190805190602001906106c9929190610bb8565b50338160020160006101000a81548173ffffffffffffffffffffffffffffffffffffffff021916908373ffffffffffffffffffffffffffffffffffffffff16021790555042816003018190555060008160040181905550600260003373ffffffffffffffffffffffffffffffffffffffff1673ffffffffffffffffffffffffffffffffffffffff16815260200190815260200160002060015490806001815401808255809150506001900390600052602060002001600090919091909150556001600081548092919061079b906112f9565b91905055507f60b80d267a26d1336f2ec73aafef1608a463e6064f8d85e1e7d4989403a9e14b3360015484426040516107d79493929190610ff3565b60405180910390a15050565b60015481565b606060008281548110610825577f4e487b7100000000000000000000000000000000000000000000000000000000600052603260045260246000fd5b9060005260206000209060070201600601805480602002602001604051908101604052809291908181526020016000905b82821015610984578382906000526020600020906004020160405180608001604052908160008201548152602001600182018054610893906112c7565b80601f01602080910402602001604051908101604052809291908181526020018280546108bf906112c7565b801561090c5780601f106108e15761010080835404028352916020019161090c565b820191906000526020600020905b8154815290600101906020018083116108ef57829003601f168201915b505050505081526020016002820160009054906101000a900473ffffffffffffffffffffffffffffffffffffffff1673ffffffffffffffffffffffffffffffffffffffff1673ffffffffffffffffffffffffffffffffffffffff16815260200160038201548152505081526020019060010190610856565b505050509050919050565b60008082815481106109ca577f4e487b7100000000000000000000000000000000000000000000000000000000600052603260045260246000fd5b90600052602060002090600702019050600081600601805490509050600082600601600181600181540180825580915050039060005260206000209060040201905084816001019080519060200190610a24929190610bb8565b50338160020160006101000a81548173ffffffffffffffffffffffffffffffffffffffff021916908373ffffffffffffffffffffffffffffffffffffffff1602179055504281600301819055508181600001819055507f5b935cc1da729ce49751ace9742260941a8e15827ef2e1b7732c3a313b845db833838742604051610aaf9493929190610ff3565b60405180910390a15050505050565b60008080549050905090565b60008181548110610ada57600080fd5b9060005260206000209060070201600091509050806000015490806001018054610b03906112c7565b80601f0160208091040260200160405190810160405280929190818152602001828054610b2f906112c7565b8015610b7c5780601f10610b5157610100808354040283529160200191610b7c565b820191906000526020600020905b815481529060010190602001808311610b5f57829003601f168201915b5050505050908060020160009054906101000a900473ffffffffffffffffffffffffffffffffffffffff16908060030154908060040154905085565b828054610bc4906112c7565b90600052602060002090601f016020900481019282610be65760008555610c2d565b82601f10610bff57805160ff1916838001178555610c2d565b82800160010185558215610c2d579182015b82811115610c2c578251825591602001919060010190610c11565b5b509050610c3a9190610c3e565b5090565b5b80821115610c57576000816000905550600101610c3f565b5090565b6000610c6e610c6984611144565b611113565b905082815260208101848484011115610c8657600080fd5b610c9184828561125b565b509392505050565b600081359050610ca8816113e0565b92915050565b600082601f830112610cbf57600080fd5b8135610ccf848260208601610c5b565b91505092915050565b600081359050610ce7816113f7565b92915050565b600060208284031215610cff57600080fd5b6000610d0d84828501610c99565b91505092915050565b600060208284031215610d2857600080fd5b600082013567ffffffffffffffff811115610d4257600080fd5b610d4e84828501610cae565b91505092915050565b60008060408385031215610d6a57600080fd5b600083013567ffffffffffffffff811115610d8457600080fd5b610d9085828601610cae565b9250506020610da185828601610cd8565b9150509250929050565b600060208284031215610dbd57600080fd5b6000610dcb84828501610cd8565b91505092915050565b6000610de08383610f72565b905092915050565b6000610df48383610fd5565b60208301905092915050565b610e0981611213565b82525050565b610e1881611213565b82525050565b6000610e2982611194565b610e3381856111cf565b935083602082028501610e4585611174565b8060005b85811015610e815784840389528151610e628582610dd4565b9450610e6d836111b5565b925060208a01995050600181019050610e49565b50829750879550505050505092915050565b6000610e9e8261119f565b610ea881856111e0565b9350610eb383611184565b8060005b83811015610ee4578151610ecb8882610de8565b9750610ed6836111c2565b925050600181019050610eb7565b5085935050505092915050565b610efa81611225565b82525050565b6000610f0b826111aa565b610f1581856111f1565b9350610f2581856020860161126a565b610f2e816113cf565b840191505092915050565b6000610f44826111aa565b610f4e8185611202565b9350610f5e81856020860161126a565b610f67816113cf565b840191505092915050565b6000608083016000830151610f8a6000860182610fd5565b5060208301518482036020860152610fa28282610f00565b9150506040830151610fb76040860182610e00565b506060830151610fca6060860182610fd5565b508091505092915050565b610fde81611251565b82525050565b610fed81611251565b82525050565b60006080820190506110086000830187610e0f565b6110156020830186610fe4565b81810360408301526110278185610f39565b90506110366060830184610fe4565b95945050505050565b600060208201905081810360008301526110598184610e1e565b905092915050565b6000602082019050818103600083015261107b8184610e93565b905092915050565b60006020820190506110986000830184610ef1565b92915050565b60006020820190506110b36000830184610fe4565b92915050565b600060a0820190506110ce6000830188610fe4565b81810360208301526110e08187610f39565b90506110ef6040830186610e0f565b6110fc6060830185610fe4565b6111096080830184610fe4565b9695505050505050565b6000604051905081810181811067ffffffffffffffff8211171561113a576111396113a0565b5b8060405250919050565b600067ffffffffffffffff82111561115f5761115e6113a0565b5b601f19601f8301169050602081019050919050565b6000819050602082019050919050565b6000819050602082019050919050565b600081519050919050565b600081519050919050565b600081519050919050565b6000602082019050919050565b6000602082019050919050565b600082825260208201905092915050565b600082825260208201905092915050565b600082825260208201905092915050565b600082825260208201905092915050565b600061121e82611231565b9050919050565b60008115159050919050565b600073ffffffffffffffffffffffffffffffffffffffff82169050919050565b6000819050919050565b82818337600083830152505050565b60005b8381101561128857808201518184015260208101905061126d565b83811115611297576000848401525b50505050565b60006112a882611251565b915060008214156112bc576112bb611342565b5b600182039050919050565b600060028204905060018216806112df57607f821691505b602082108114156112f3576112f2611371565b5b50919050565b600061130482611251565b91507fffffffffffffffffffffffffffffffffffffffffffffffffffffffffffffffff82141561133757611336611342565b5b600182019050919050565b7f4e487b7100000000000000000000000000000000000000000000000000000000600052601160045260246000fd5b7f4e487b7100000000000000000000000000000000000000000000000000000000600052602260045260246000fd5b7f4e487b7100000000000000000000000000000000000000000000000000000000600052604160045260246000fd5b6000601f19601f8301169050919050565b6113e981611213565b81146113f457600080fd5b50565b61140081611251565b811461140b57600080fd5b5056fea26469706673582212205a7af50bd516d2cc2e7288a4cd89fc7b2062bc8bf74e255049f47a4c806aa48464736f6c63430008000033",
  "linkReferences": {},
  "deployedLinkReferences": {}
}